:100000000C943E000C945B000C945B000C945B0021
:100010000C9493040C945B000C945B000C945B00B8
:100020000C945B000C94F7030C945B000C945B0045
:100030000C945B000C945B000C945B000C945B00D4
:100040000C948D000C945B000C945B000C945B0092
:100050000C945B000C945B000C945B000C945B00B4
:100060000C945B000C945B000C945B000C945B00A4
:100070000C945B000C945B000C945B0011241FBE7D
:10008000CFEFD8E0DEBFCDBF11E0A0E0B1E0E4E902
:10009000FAE202C005900D92AA3AB107D9F724E01E
:1000A000AAEAB1E001C01D92A730B207E1F70E94B1
:1000B0007A110C9448150C9400000898109A09982D
:1000C000119A2098289A2098289A2198299A22985B
:1000D0002A9A23982B9A24982C9A5098589A519897
:1000E000599A55985D9A81E08093680083E08093E7
:1000F0006B0008958CE78093B300E0E7F0E0808127
:1001000082608083E0EBF0E0808182608083E1EBBD
:10011000F0E080818560808308951F920F920FB672
:100120000F9211248F939F93EF93FF93E091CC0153
:100130008091CB0191E0980F9093CB01F0E0FE2FDE
:10014000EE27E353FE4FE80FF11D808190E090937E
:100150008B0080938A008091CB01811106C0909121
:10016000CC0181E0891B8093CC01FF91EF919F919D
:100170008F910F900FBE0F901F901895EEE6F0E054
:1001800080818260808385B585BD84B5826084BDB1
:1001900085B5826085BD089515BC14BC10926E00B3
:1001A00017BC16BC0895E1E8F0E080818860808388
:1001B000A0E8B0E08C9181608C938C9180638C93EB
:1001C0008081816080830895109281001092800068
:1001D00010928B0010928A00109285001092840079
:1001E00008952091CD033091CE0381E012161306BD
:1001F0000CF080E008958F929F92AF92BF92CF92C1
:10020000DF92EF92FF92CF93DF9300D0CDB7DEB7AE
:100210008091CC0190E0982F8827AE014F5F5F4F0F
:100220006CE070E083539E4F0E940F0B892B09F006
:10023000A3C089819A810C9709F05EC0E091CC013E
:10024000F0E0FE2FEE27E353FE4F80859185A285D7
:10025000B38587359144A645B54409F04DC030E8D3
:10026000832E34E8932E3EE1A32EB12C8091CC0155
:1002700090E0982F8827AE014F5F5F4F68E070E0F5
:1002800083539E4F0E940F0B89819A810897A1F595
:10029000E091CC01F0E0FE2FEE27EF52FE4FC08040
:1002A000D180E280F380E091CC01F0E0FE2FEE27D8
:1002B000E353FE4F80819181A281B3818C3429E484
:1002C000920723E5A20724E5B20709F444C030F4FD
:1002D00086369D46A447B04299F00EC0843621E68A
:1002E000920724E7A20721E6B20709F486C0863602
:1002F0009146A346B44779F1C12CD12C76017DC03B
:10030000D701C6014097A109B10985359105A1051D
:10031000B10590F78091CC0190E0982F8827AE012D
:100320004F5F5F4FB60183539E4F0E940F0B898131
:100330009A81A0E0B0E0C816D906EA06FB06E1F60D
:10034000E091CC01F0E0FE2FEE27E353FE4F8081D9
:100350008130B9F0D1CF8091EC039091ED03A09161
:10036000EE03B091EF03BC01CD016C0D7D1D8E1D20
:100370009F1D0E94020D7ACFC12CD12C7601C3940F
:100380003CC0E091CC01F0E0FE2FEE27E353FE4F9E
:100390008281813059F0E091CC01F0E0FE2FEE2710
:1003A000E353FE4F8281823009F0A6CFE091CC0169
:1003B000F0E0FE2FEE27E353FE4F8685883059F09C
:1003C000E091CC01F0E0FE2FEE27E353FE4F86854F
:1003D000803109F091CFE091CC01F0E0FE2FEE27C3
:1003E000EF52FE4F2081318140E050E0C501B40161
:1003F0000E94F211215027BD39CFC701B6010F90DD
:100400000F90DF91CF91FF90EF90DF90CF90BF9052
:10041000AF909F908F900895CF93DF93EC0163E0AE
:1004200071E00E943612892B19F082B1886231C0C6
:1004300066E071E0CE010E943612892B11F0149A09
:1004400029C069E071E0CE010E943612892B19F0B3
:1004500082B180631EC06CE071E0CE010E94361252
:10046000892B19F082B1886114C060E171E0CE017E
:100470000E943612892B11F0159A0CC063E171E0CD
:10048000CE010E943612892B11F0139A03C082B15B
:10049000886382B9DF91CF91089582B1877C82B958
:1004A0000895DF92EF92FF920F931F93CF93DF9304
:1004B00000D0CDB7DEB78C010E94B40A009709F0D6
:1004C00089C081E090E09093CE038093CD03109299
:1004D000D1031092D2031092D3030E94FB006F3F0E
:1004E00071058105910509F008F46FC08091EC0356
:1004F0009091ED03A091EE03B091EF0381509E4FD8
:10050000AF4FBF4FBC01CD0166277E7F0E94020D19
:10051000009709F05FC08091CC0190E0982F882768
:10052000AE014F5F5F4F60E071E083539E4F0E94CA
:100530000F0B009709F04EC089819A818F3F91057A
:1005400009F008F444C01092CB01C8010E940C02CB
:100550000E94BE000E94D300549AEE24E394F12C32
:100560000E94F100882309F1D090CC018091CC0148
:100570009701281B3109C901982F8827AE014F5FC9
:100580005F4F60E071E083539E4F0E940F0B8C0120
:10059000892B69F489819A818F3F910531F028F088
:1005A0008091CC01D816E1F3DBCF00E010E0549845
:1005B0000E94E4000E94CC001092CE031092CD0362
:1005C0000E944D02202F912F06C023E001C020E0A1
:1005D00090E001C0282F822F0F900F90DF91CF91D4
:1005E0001F910F91FF90EF90DF900895AF92BF920F
:1005F000CF92DF92FF920F931F93CF93DF93CDB7EC
:10060000DEB7A6970FB6F894DEBF0FBECDBF5C0174
:100610006B018A0166E171E0CE0147960E942E0EC1
:10062000F12C8F2D0F2C000C990B8A159B057CF457
:10063000BE016F5F7F4FCE0147960E947F0E8A8575
:10064000811103C0F801108213C0F394EACFF801BE
:100650001082B601C8010E942B1269E171E0C80145
:100660000E942B12BE01665F7F4FC8010E942B12B1
:10067000A6960FB6F894DEBF0FBECDBFDF91CF9127
:100680001F910F91FF90DF90CF90BF90AF90089592
:10069000019957C081E090E09093D0038093CF03FD
:1006A0001092CE031092CD031092AA012091000166
:1006B0003091010180910201232B49F4082E000C96
:1006C000990B4AEA51E066E171E0029607C04AEAF6
:1006D00051E066E171E0082E000C990B0E94F602D1
:1006E0008091AA0181110BC081E0809302014AEA46
:1006F00051E066E171E081E090E00E94F6020E9424
:10070000A5066AEA71E080E00E9497062091000148
:1007100030910101809102012130310519F02F3F04
:100720003F4F11F48F5F05C0813011F482E001C0AA
:100730008D5F8093020181E090E0909301018093AE
:100740000001009953C081E090E09093D003809322
:10075000CF031092CE031092CD031092AA012091E4
:10076000000130910101809102012130310549F4ED
:10077000082E000C990B4AEA51E066E171E00297FD
:1007800007C04AEA51E066E171E0082E000C990BBF
:100790000E94F6028091AA0181110BC088E080932B
:1007A00002014AEA51E066E171E088E090E00E94CF
:1007B000F6020E94A5066AEA71E080E00E949706B0
:1007C00080910201813011F488E00AC0209100017B
:1007D000309101012130310511F4835001C0815065
:1007E00080930201109201011092000108951F925E
:1007F0000F920FB60F9211240F931F932F933F93D5
:100800004F935F936F937F938F939F93AF93BF9318
:10081000EF93FF93CF93DF93CDB7DEB72797DEBF7C
:10082000CDBF8091CF039091D003892B69F0809147
:10083000CF039091D00301969093D0038093CF0380
:1008400010920104109200048091CD039091CE0388
:10085000892B09F44DC08091000490910104019608
:100860009093010480930004883E934008F440C0B4
:1008700010920104109200048091D1038F5F809345
:10088000D1038C33A1F41092D1038091D2038F5FF6
:100890008093D2038C3359F41092D2038091D30306
:1008A0008F5F8093D303883111F41092D30390911A
:1008B000D1038091D2031F929F931F928F938BE15C
:1008C00091E09F938F931F9287E08F938E010F5F2C
:1008D0001F4F1F930F930E9450120E94AA06B80147
:1008E00080E40E9497060FB6F894DEBF0FBECDBF1E
:1008F00027960FB6F894DEBF0FBECDBFDF91CF9124
:10090000FF91EF91BF91AF919F918F917F916F91E7
:100910005F914F913F912F911F910F910F900FBEBB
:100920000F901F9018951F920F920FB60F921124DF
:100930002F933F934F935F936F937F938F939F93E7
:10094000AF93BF93EF93FF9301990CC081E090E0C8
:100950009093D0038093CF031092CE031092CD03D7
:100960000E94AA0600990CC081E090E09093D00309
:100970008093CF031092CE031092CD030E94AA065B
:10098000FF91EF91BF91AF919F918F917F916F9167
:100990005F914F913F912F910F900FBE0F901F903D
:1009A000189518990BC00E94A50665E271E080E0D9
:1009B0000E9497068CE291E00E94510219990BC0A7
:1009C0000E94A50663E071E080E00E94970687E33D
:1009D00091E00E9451021A990BC00E94A50666E0A0
:1009E00071E080E00E94970681E491E00E9451024C
:1009F0001B990BC00E94A50669E071E080E00E948F
:100A000097068BE491E00E9451021C990BC00E9452
:100A1000A5066CE071E080E00E94970685E591E014
:100A20000E9451024D990BC00E94A50660E171E041
:100A300080E00E94970680E691E00E945102499969
:100A40000BC00E94A50663E171E080E00E9497065A
:100A50008AE691E00E94510248990BC00E94A506C7
:100A600064E771E080E00E9497068BE791E00C94C8
:100A7000510208959F92AF92BF92CF92DF92EF9270
:100A8000FF920F931F93CF93DF9327B1277827B956
:100A900028B1277828B9429A00C000C026B196B084
:100AA000A6B0B6B0429800C000C0429A00C000C0D4
:100AB000C6B0D6B0F6B0E6B0429800C000C037B1BC
:100AC000386737B930E0220F331F2078332795FA83
:100AD000882780F990E046E0880F991F4A95E1F752
:100AE000822B932BA4FAAA27A0F9B0E055E0AA0F15
:100AF000BB1F5A95E1F7A82BB92BB3FA662760F90B
:100B000070E0CB0164E0880F991F6A95E1F78A2BAA
:100B10009B2BC6FA002700F910E073E0000F111FAD
:100B20007A95E1F7D5FAEE27E0F9F0E0EE0FFF1F36
:100B3000EE0FFF1FE02BF12BE3FAEE24E0F8CE2DB1
:100B400020E0D22FEC2BFD2BF4FA442740F950E0A3
:100B5000440F551F4E2B5F2B842BDF91CF911F919C
:100B60000F91FF90EF90DF90CF90BF90AF909F904C
:100B700008954098419A00C000C00C943A05409AEC
:100B8000419A00C000C00C943A050E94B905881F24
:100B90008827881F08950E94C5058111FCCF0895FC
:100BA000EF92FF920F931F93CF93DF93429A98B1E6
:100BB000682F782F771F7727771F7295770F770F1A
:100BC000707C9778972B86FBEE24E0F8F12C25E0DB
:100BD000EE0CFF1C2A95E1F7E92A85FB002700F9B6
:100BE00010E034E0000F111F3A95E1F70E2984FB65
:100BF000992790F9C92F90E0D92F43E0CC0FDD1F42
:100C00004A95E1F7C02BC8B900C000C0429800C0A7
:100C100000C0429A98B1A82FA170B0E053E0AA0F8B
:100C2000BB1F5A95E1F7892F8778A82B63FBEE2726
:100C3000E0F9F0E076E0EE0FFF1F7A95E1F7EA2B9E
:100C400062FB442740F950E0F5E0440F551FFA9548
:100C5000E1F74E2B61FB222720F930E0A4E0220FC0
:100C6000331FAA95E1F7242B28B900C000C0429891
:100C700000C000C0DF91CF911F910F91FF90EF90C6
:100C80000895CF93C82F0E94CB054098419800C08B
:100C900000C08C2FCF910C94D00587B1886787B99D
:100CA00087B1876087B93F9A479A4098419800C0BA
:100CB00000C0429A88B18778806188B900C000C0BE
:100CC000429800C000C088E20E94410688E20E946B
:100CD00041068FE00E94410686E00E94410681E0C5
:100CE0000C944106CF93C82F0E94CB05409A41989F
:100CF00000C000C08C2FCF910C94D0050C947206CC
:100D0000CF93C62F80580E9441068C2FCF910C9410
:100D10007206CF93DF93EC018991882319F00E942A
:100D20007206FACF00C000C0DF91CF910895CF9333
:100D3000DF93EB0180680E944106CE010E94890684
:100D400000C000C0DF91CF91089569E971E080E0B3
:100D50000C94970669E971E080E40C9497060F9370
:100D60001F93E0910204F09103049B01AC01225017
:100D700031094109510980859185A285B385029782
:100D8000A109B109281739074A075B0768F4A1814F
:100D9000B0E00E9411120489158926893789600FF5
:100DA000711F821F931F03C060E070E0CB011F9191
:100DB0000F9108950F931F93CF93DF93DC01E09180
:100DC0000204F091030411961C921E9214966D91E8
:100DD0007D918D919C9117976130710581059105E9
:100DE00069F10085118522853385601771078207B7
:100DF000930720F5611571058105910539F420816E
:100E0000233021F46089718982899389ED01688793
:100E100079878A879B87611571058105910519F08E
:100E20000E94AF0604C060897189828993896C87AA
:100E30007D878E879F8780E090E002C081E090E010
:100E4000DF91CF911F910F9108954F925F926F9212
:100E50007F92AF92BF92CF92DF92EF92FF920F9369
:100E60001F93CF93DF9300D000D0CDB7DEB76230B1
:100E700071058105910508F4ACC0A0900204B09002
:100E80000304F501C084D184E284F3846C157D05EC
:100E90008E059F0508F09DC06B017C01808182302A
:100EA00009F454C0833009F46DC0813009F091C059
:100EB0002601569447944C0C5D1C92013170452CD0
:100EC00055244694612C712C44855585668577851B
:100ED000440D551D661D771D2F3FF1E03F0729F09A
:100EE00002E010E0CE0101961CC001E010E02FEFFF
:100EF00031E0CE0101960E94C010892B09F069C033
:100F0000F50144855585668577854F5F5F4F6F4F47
:100F10007F4F440D551D661D771D20E030E0CE014A
:100F200002960E94C010892B09F053C089819A81D2
:100F3000C0FE07C0BC01E4E076956795EA95E1F74D
:100F400002C0BC017F7080E090E047C0960133276B
:100F5000220F331F77276F2D5E2D4D2DF5018485D0
:100F60009585A685B785480F591F6A1F7B1F02E02C
:100F700010E0CE0101960E94C010892B51F56981C5
:100F80007A81E1CF96012F773327220F331F220F6B
:100F9000331F97E0F694E794D794C7949A95D1F7C6
:100FA000F50144855585668577854C0D5D1D6E1D63
:100FB0007F1D04E010E0CE0101960E94C010892B35
:100FC00041F489819A81AB81BC81BC01CD019F70C4
:100FD00004C061E070E080E090E00F900F900F900F
:100FE0000F90DF91CF911F910F91FF90EF90DF90C5
:100FF000CF90BF90AF907F906F905F904F9008958B
:10100000CF92DF92EF92FF920F931F93CF93DF93D4
:10101000EC01088119810F5F1F4F19F483E090E004
:101020005DC04C855D856E857F85411551056105E7
:101030007105A1F3C8018F709927892B09F047C06A
:10104000E0900204F09003044F5F5F4F6F4F7F4FBB
:101050004C875D876E877F87688579858A859B85C4
:10106000F701611571058105910531F48481958140
:101070000817190798F62BC0218130E0A9014150CB
:1010800051099801E4E036952795EA95E1F7242384
:101090003523232BE1F40E94250762307105810579
:1010A0009105D0F0F701C084D184E284F3846C15FB
:1010B0007D058E059F0508F0B1CF688779878A87FF
:1010C0009B870E94AF066C877D878E879F871983D9
:1010D000088380E090E002C081E090E0DF91CF9152
:1010E0001F910F91FF90EF90DF90CF900895CF92D6
:1010F000DF92EF92FF920F931F93CF93DF93EC0158
:101100006A017B0102E010E02EEF31E00E94C01086
:10111000892BA1F48881998185359A4A89F426E33F
:1011200030E0B701A601CE010E94C010892B51F416
:10113000888199818634914429F415C083E016C0D2
:1011400082E014C002E010E022E530E0B701A60121
:10115000CE010E94C010892B41F481E028813981A1
:101160002634314419F480E001C081E0DF91CF9151
:101170001F910F91FF90EF90DF90CF9008958F9285
:101180009F92BF92CF92DF92EF92FF920F931F93A5
:10119000CF93DF93EC016B01FB0180816F5F7F4F89
:1011A0008032C9F38F3209F46B011C821D821E82CA
:1011B0001F82F6018081813218F050E2B52E42C0C4
:1011C000CE010E94DA067C01E0910204F091030452
:1011D0000680F781E02D1082ADC0F4018081882364
:1011E00009F495C0F401838583FD87C06A817B8102
:1011F000C401DB01AB01455F5F4F4A175B0709F094
:1012000075C0FB018385811195C0E0910204F091C6
:1012100003040680F781E02D838584FF7DC08489E7
:101220009589A0E0B0E0DC0199278827428D538D95
:1012300060E070E0842B952BA62BB72B8C839D83CD
:10124000AE83BF83EA81FB81DF01CF010B96A81734
:10125000B90721F490E080E028E014C0BD92F7CFF8
:101260008F32C1F08E3209F45FC0921798F44FE9C3
:10127000480F4A3108F48052DF01A90FB11D8C9349
:101280009F5F832F31E0380FD601A80FB11D8C91DD
:10129000813230F7C30ED11C91E0813208F090E02A
:1012A0009387CE010E94DA067C01892B61F5E091DB
:1012B0000204F091030486809780288139812F7081
:1012C000332745E0220F331F4A95E1F74C855D85B2
:1012D0006E857F8500E210E0C4010E94C010892B5A
:1012E00009F47BCFEE24E394F12C24C0FC0131916E
:1012F000CF012D91321709F480CFCE010E94000852
:101300000097D9F27C01F3E0EF16F10499F4EA8139
:10131000FB818385811104C034E0E32EF12C0AC0E7
:1013200083E0E82EF12C06C0283009F0B3CF98E016
:101330002BE0A7CFC701DF91CF911F910F91FF90B5
:10134000EF90DF90CF90BF909F908F9008952F9255
:101350003F924F925F926F927F928F929F92AF9245
:10136000BF92CF92DF92EF92FF920F931F93CF9392
:10137000DF93CDB7DEB7A4970FB6F894DEBF0FBEEC
:10138000CDBF1092030410920204009709F4CEC05E
:101390001C010E94111080FDCCC040E050E0BA0159
:1013A000CE0101960E947708813009F500E110E036
:1013B0002EEB31E040E050E0BA01CE0101960E94F0
:1013C000C010892B19F081E090E0B5C08D818111AA
:1013D00003C087E090E0AFC049845A846B847C846A
:1013E000B301A201CE0101960E94770803C0412CEF
:1013F000512C3201833039F38111EBCF04E210E03C
:101400002DE030E0B301A201CE0101960E94C01090
:10141000892BC9F62A853B8540E050E0211531052E
:101420004105510521F4288D398D4A8D5B8DAC81A4
:10143000B0E00E9411126B017C014A815B8160E087
:1014400070E0440E551E661E771EF10144865586D7
:1014500066867786298121838D809E80958284820D
:101460008F819885A0E0B0E00097A105B10521F437
:101470008C899D89AE89BF8934E0969487943A958A
:10148000E1F7A12CB12C841B950BA60BB70B8C1983
:101490009D09AE09BF09BC01CD01681979098A0906
:1014A0009B0930E040E050E00E94D011DA01C90110
:1014B0000296A11DB11DF10180879187A287B38794
:1014C000873FFFE09F07A105B10538F0873F9F4F99
:1014D000A105B10520F083E003C081E001C082E0F6
:1014E000F1018083833029F488A199A1AAA1BBA12D
:1014F00007C0D701C601840D951DA61DB71DF101BA
:10150000808B918BA28BB38B840C951CA61CB71C73
:101510008C0C9D1CAE1CBF1CF101848A958AA68A86
:10152000B78A1282309203042092020480E090E095
:1015300002C082E090E0A4960FB6F894DEBF0FBE22
:10154000CDBFDF91CF911F910F91FF90EF90DF9072
:10155000CF90BF90AF909F908F907F906F905F9053
:101560004F903F902F9008950F931F93CF93DF9349
:10157000CDB7DEB7EC970FB6F894DEBF0FBECDBF88
:10158000009102041091030401151105C9F1BC0179
:10159000F8011282CE01019697838683C0969CA3A0
:1015A0008BA340970E94BF08009771F5898188231B
:1015B00049F18C8584FD26C08D899E89A0E0B0E02C
:1015C000DC01992788274B8D5C8D60E070E0842BCF
:1015D000952BA62BB72BF80180A391A3A2A3B3A3AD
:1015E0008D8D9E8DAF8DB8A1848F958FA68FB78F6F
:1015F000108E118E128E138E81E0828380E003C0E4
:1016000086E001C083E090E0EC960FB6F894DEBF70
:101610000FBECDBFDF91CF911F910F9108954F92D3
:101620005F926F927F928F929F92AF92BF92CF9272
:10163000DF92EF92FF920F931F93CF93DF934C01B2
:101640006B013A01C0910204D0910304FA011182A6
:101650001082209709F4ACC08A8180FFACC08C8DC9
:101660009D8DAE8DBF8D488D598D6A8D7B8D841B70
:10167000950BA60BB70BA60160E070E084179507E9
:10168000A607B70708F46C015401412CF2E05F2E65
:10169000C114D10409F492C0E88CF98C0A8D1B8D19
:1016A000D801C7019170AA27BB27892B8A2B8B2BC6
:1016B00009F047C0298130E040E050E0C801B7019F
:1016C000E9E09695879577956795EA95D1F70E9419
:1016D000D011672B682B692BD1F4EF28E02AE12A7F
:1016E00029F468A179A18AA19BA106C06CA17DA162
:1016F0008EA19FA10E942507623071058105910589
:1017000008F452C06CA37DA38EA39FA31B826CA17F
:101710007DA18EA19FA10E94AF0661157105810573
:10172000910509F441C02B8131E0320F3B83DC018C
:10173000CB01820F911DA11DB11D88A799A7AAA752
:10174000BBA7288D398D3170C201821B930B7601A6
:101750008C159D0508F47C0148A559A56AA57BA5B3
:101760008114910411F0C50102C080E090E087016E
:101770000E94C010892BC1F4888D998DAA8DBB8DD4
:101780008E0D9F1DA11DB11D888F998FAA8FBB8FB4
:10179000AE0CBF1CCE18DF08F30180819181E80EEA
:1017A000F91EF182E08274CF1A8281E090E008C0D5
:1017B00086E090E005C085E090E002C080E090E027
:1017C000DF91CF911F910F91FF90EF90DF90CF901D
:1017D000BF90AF909F908F907F906F905F904F9051
:1017E00008954F925F926F927F928F929F92AF92E5
:1017F000BF92CF92DF92EF92FF920F931F93CF93FE
:10180000DF936C018B015A01C0910204D091030453
:10181000FA0111821082209709F4D8C08A8180FFD2
:10182000D8C08074672B71F4882309F4D5C040E0D8
:1018300050E0BA0180E090E00E941511892B09F078
:10184000C1C0CAC081110AC0888D998DAA8DBB8D77
:1018500088279E7F888F998FAA8FBB8F8C8D9D8DB7
:10186000AE8DBF8D488D598D6A8D7B8D841B950BF8
:10187000A60BB70BA80160E070E084179507A607D8
:10188000B70708F48C01812CF2E09F2E0115110599
:1018900009F4A5C0488C598C6A8C7B8CC20191706C
:1018A000892B09F051C0298130E040E050E0C301AC
:1018B000B201E9E09695879577956795EA95D1F716
:1018C0000E94D011672B682B692BD1F4452846283C
:1018D000472829F468A179A18AA19BA106C06CA11F
:1018E0007DA18EA19FA10E9425076230710581050F
:1018F000910508F467C06CA37DA38EA39FA31B82F0
:101900006CA17DA18EA19FA10E94AF0661157105FA
:101910008105910509F456C02B8131E0320F3B83DC
:10192000AB01BC01420F511D611D711D48A759A794
:101930006AA77BA780E090E00E941511892B09F02F
:1019400041C08A8180648A83888D998D91709401C9
:10195000281B390B78012017310708F4790127017A
:10196000612C712CB301A201C6010E941511892BB3
:1019700049F5888D998DAA8DBB8D480E591E6A1E1A
:101980007B1E488E598E6A8E7B8ECE0CDF1C0E1904
:101990001F09F50180819181E80EF91EF182E08234
:1019A000F1E05F22452809F071CF40E050E0BA0134
:1019B00080E090E00E941511892B21F48A818F7BB1
:1019C0008A8364CF1A8281E090E00BC086E090E0C9
:1019D00008C085E090E005C08A818F7B8A8380E023
:1019E00090E0DF91CF911F910F91FF90EF90DF90EA
:1019F000CF90BF90AF909F908F907F906F905F90AF
:101A00004F9008954F925F926F927F928F929F9224
:101A1000AF92BF92CF92DF92EF92FF92CF93DF937C
:101A200000D000D000D0CDB7DEB7209102043091B5
:101A300003043E832D832115310509F4F5C0D90136
:101A400012962C91129720FFF2C05C96CD90DD90FB
:101A5000ED90FC905F976C157D058E059F0510F449
:101A60006B017C01ED81FE81408C518C628C738C0A
:101A7000108E118E128E138EC114D104E104F10464
:101A800009F4C8C0ED81FE818180912CA12CB12C7C
:101A900039E0880C991CAA1CBB1C3A95D1F741145B
:101AA00051046104710409F440C0F1E04F1A510877
:101AB00061087108C701B601615071098109910976
:101AC000A50194010E94D01129833A834B835C8342
:101AD000C301B201A50194010E94D01189819A81AC
:101AE000AB81BC8182179307A407B507F0F0882764
:101AF0009927DC0188199909AA09BB0948225922AA
:101B00006A227B22AD81BE8158964D925D926D9284
:101B10007C925B97C418D508E608F70894966D91F7
:101B20007D918D919C9197970AC0ED81FE8160A176
:101B300071A182A193A164A375A386A397A38C141A
:101B40009D04AE04BF0448F50E942507623071056C
:101B50008105910508F461C0ED81FE8140845184C6
:101B600062847384641575058605970508F055C071
:101B700064A375A386A397A3408C518C628C738C4D
:101B8000480C591C6A1C7B1C408E518E628E738ED1
:101B9000C818D908EA08FB08D2CFAD81BE81589693
:101BA0008D909D90AD90BC905B978C0C9D1CAE1C55
:101BB000BF1CFD01808E918EA28EB38E0E94AF0657
:101BC000611571058105910541F14601570129E033
:101BD000B694A794979487942A95D1F7F1E0DF22E1
:101BE000EE24FF24CD28CE28CF2829F4AD81BE8154
:101BF00013968C920FC021E0280DED81FE81238386
:101C0000DC01CB01880D991DAA1DBB1D80A791A7E2
:101C1000A2A7B3A780E090E00CC0AD81BE81129670
:101C20001C9281E090E005C086E090E002C085E073
:101C300090E026960FB6F894DEBF0FBECDBFDF91C1
:101C4000CF91FF90EF90DF90CF90BF90AF909F909B
:101C50008F907F906F905F904F9008950F931F9398
:101C6000CF93DF93CDB7DEB7AC970FB6F894DEBF56
:101C70000FBECDBFE0910204F0910304309791F1C3
:101C80008C01CE010196978386838096F801938319
:101C90008283C8010E94BF08009701F589818823CB
:101CA000D1F08C8584FD03C084E090E01DC08D8957
:101CB0009E89A0E0B0E0DC01992788274B8D5C8DE0
:101CC00060E070E0842B952BA62BB72BF801848362
:101CD0009583A683B783C8010E94DA0683309105F5
:101CE00019F302C086E090E0AC960FB6F894DEBF20
:101CF0000FBECDBFDF91CF911F910F910895AF928D
:101D0000BF92CF92DF92EF92FF920F931F93CF93E8
:101D1000DF93CDB7DEB7AC970FB6F894DEBF0FBE3A
:101D2000CDBFE0910204F0910304309709F4D4C0D0
:101D30006B017C019E012F5F3F4F59013783268342
:101D4000CE018196D70113969C938E931297672BA1
:101D500021F4C7010E94DA06D8C083E090E0F701C1
:101D60004485558566857785411551056105710561
:101D700089F0208131812F70332785E0220F331FB6
:101D80008A95E1F700E210E0C5010E94C010892B9E
:101D900099F0B2C00097E9F0D7011C961D921D92F0
:101DA0001D921C921F978330910509F0AEC0560119
:101DB000B9E0AB0EB11C7EC08981882309F496C0BE
:101DC000853E09F48CC08E3209F489C08C8583FD70
:101DD00086C05601B9E0AB0EB11CF70144855585AC
:101DE00066857785452B462B472B09F463C0E09128
:101DF0000204F091030486819781AC01F60171968B
:101E0000DA012D91AD01203279F0253009F425EE6B
:101E1000BFEFAB1ABB0AB50161507109DB012C930E
:101E2000AE16BF0669F701C0F501DC0118962C91CA
:101E30002032C1F02EE220835C01B8E0AB0EB11C71
:101E4000AF014C5F5F4F3196D5012D915D0120327E
:101E500049F03196BF0161507109DB012C93E41701
:101E6000F50791F7DC011B962C91D60118962C935F
:101E7000DC015C964D915D916D917C915F97D601EF
:101E80004D935D936D937C931397DC0158962D9140
:101E90003C915997D60115963C932E931497DC01EB
:101EA00056968D919C915797D60117969C938E9339
:101EB00016975F01F5011082C7010E940008833068
:101EC000910519F5D7011C961D921D921D921C9229
:101ED0001F9780E090E019C086E090E016C0C7012F
:101EE0000E940008009709F43ACF56CFF7011486F4
:101EF0001586168617866DCFD7011C961D921D92EA
:101F00001D921C921F9781E090E0AC960FB6F8945A
:101F1000DEBF0FBECDBFDF91CF911F910F91FF901C
:101F2000EF90DF90CF90BF90AF9008958FEF0C941B
:101F30007411129A0C94960FFF920F931F93CF93E4
:101F4000DF93C82FD42F152F062FF72E87FF09C038
:101F500040E050E0BA0187E70E949C0F823040F5D4
:101F6000CF77129A0E94960F12980E94960F8C2F8C
:101F70000E9474118F2D0E947411802F0E94741181
:101F8000812F0E9474118D2F0E947411C03421F092
:101F9000C83421F487E803C085E901C081E00E94CC
:101FA0007411CAE00E94960F87FF02C0C150D1F79A
:101FB000DF91CF911F910F91FF9008950F931F9381
:101FC000CF93DF93C0910404D0910504CE3F8FEFEF
:101FD000D80729F080E00E9474112197F7CF0E9462
:101FE000960F8F71853061F408EE1DEF0E94960FF9
:101FF0008F3F49F00115110531F001501109F6CF5D
:10200000D1E0C0E005C0D1E0C0E0012B09F0D0E094
:102010000E94990F8D2F9C2FDF91CF911F910F91CF
:102020000895CF92DF92EF92FF920F931F93CF9379
:10203000DF9300D000D0CDB7DEB7129A8DE08A953D
:10204000F1F700000E9467110A9A129B0E94DE0FAE
:1020500014E60E94960F1150E1F740E050E0BA01FB
:1020600080E40E949C0F813009F071C04AEA51E07F
:1020700060E070E088E40E949C0F813031F58E01B1
:102080000F5F1F4F6E01E5E0CE0ED11C78010E945C
:10209000960FF70181937F01CE16DF06C1F78B8182
:1020A000813009F054C08C818A3A09F050C090EE1A
:1020B000E92E9EE2F92E40E050E060E070E489EE07
:1020C0000E949C0F81111BC01FC040E050E0BA016C
:1020D00089EE0E949C0F823018F011E001E402C0EA
:1020E00012E009EE88EAE82E81E6F82E40E050E0A2
:1020F000BA01802F0E949C0F811125C02AC0F1E0F7
:10210000EF1AF10821F1D7CF40E050E0BA018AE799
:102110000E949C0F81111BC00E94960FF8018193B1
:102120008F01CE16DF06C1F7898186FD02C014E05B
:1021300001C01CE0109306040E94990F81E0112356
:1021400091F080E010C081E0E81AF10879F610E023
:10215000F1CF40E052E060E070E080E50E949C0F2B
:102160008111F5CFE7CF0F900F900F900F90DF9177
:10217000CF911F910F91FF90EF90DF90CF90089536
:10218000CF92DF92EF92FF920F931F93CF93DF9343
:102190007C0169018091060483FD07C089E0440F3A
:1021A000551F661F771F8A95D1F781E50E949C0F06
:1021B000882319F0C1E0D0E02CC0C0E3D5E70E942D
:1021C000960F8F3F19F42197D1F7F4CF8E3F91F7F7
:1021D000C2E0D2E0C01BD10BCC19DD09C114D1047F
:1021E00021F4E114F10439F40EC00E94960F81E04D
:1021F000C81AD108F3CF0E94960FF70181937F018F
:1022000001501109C1F70E94960F2197E1F7C0E034
:10221000D0E00E94990FCE01DF91CF911F910F91D5
:10222000FF90EF90DF90CF9008950F931F93CF937F
:10223000DF930097D1F0EA018C012097F1F18091B2
:10224000040490910504892BC1F1F80181918F015B
:102250000E94741180910404909105040197909359
:102260000504809304042197E8CF411551056105C9
:102270007105E9F08091060483FD07C089E0440FF1
:10228000551F661F771F8A95D1F788E50E949C0F1E
:10229000811116C08FEF0E9474118EEF0E9474118D
:1022A00080E092E0909305048093040406C0DF91DF
:1022B000CF911F910F910C94DE0F80E090E002C04F
:1022C00081E090E0DF91CF911F910F9108952C9ABA
:1022D0008FE99FE00197F1F700C0000084B1806AA8
:1022E00084B980E58CBD08958EBD0DB407FEFDCF89
:1022F0008EB508950E944D060E947A00789466E893
:1023000071E080E00E94970684ED93E00E94A709A7
:10231000892B51F02FEF83ED90E3215080409040C6
:10232000E1F700C00000EBCF0E945D000E94A5060F
:1023300060E971E080E00E9497062FEF83ED90E363
:10234000215080409040E1F700C000000E94A506A7
:102350000E9448030E94D1048091CF039091D00342
:10236000893B9B409CF0809102014AEA51E066E182
:1023700071E0082E000C990B0E94F6028AEA91E0A7
:102380000E9451021092D0031092CF038FEF91EE72
:1023900024E0815090402040E1F700C00000D8CFF9
:1023A000A1E21A2EAA1BBB1BFD010DC0AA1FBB1F59
:1023B000EE1FFF1FA217B307E407F50720F0A21BCB
:1023C000B30BE40BF50B661F771F881F991F1A9438
:1023D00069F760957095809590959B01AC01BD0162
:1023E000CF010895052E97FB1EF400940E94091258
:1023F00057FD07D00E94D01107FC03D04EF40C9477
:10240000091250954095309521953F4F4F4F5F4FA2
:10241000089590958095709561957F4F8F4F9F4F50
:1024200008950E941C12A59F900DB49F900DA49F2B
:10243000800D911D11240895A29FB001B39FC0018A
:10244000A39F700D811D1124911DB29F700D811DE0
:102450001124911D0895FB01DC010D900020E9F786
:10246000119701900D920020E1F70895FB01519121
:102470005523A9F0BF01DC014D9145174111E1F74A
:1024800059F4CD010190002049F04D9140154111C2
:10249000C9F3FB014111EFCF81E090E0019708956E
:1024A000AEE0B0E0E6E5F2E10C941F150D891E895F
:1024B0008F89988D26E02C831A83098397FF02C0A9
:1024C00080E090E801979E838D83AE01455E5F4F6B
:1024D000698D7A8DCE0101960E9480124D815E81B8
:1024E00057FD0AC02F813885421753070CF49A0113
:1024F000F801E20FF31F10822E96E4E00C943B15D6
:10250000ABE0B0E0E6E8F2E10C9411156C017B0160
:102510008A01FC0117821682838181FFCCC1CE0122
:1025200001963C01F6019381F70193FD859193FF9C
:1025300081917F01882309F4BAC1853239F493FD72
:10254000859193FF81917F01853229F4B60190E056
:102550000E947714E7CF912C212C312CFFE1F31549
:10256000D8F08B3279F038F4803279F08332A1F4EC
:10257000232D20611DC08D3261F0803369F4232D3D
:10258000216016C0832D8260382EE32DE4603E2E3C
:102590002AC0F32DF8601DC037FC2DC020ED280F98
:1025A0002A3040F08E32B9F436FC81C1232D2064EC
:1025B000322E19C036FE06C08AE0989E200D1124E6
:1025C000922E11C0EAE02E9E200D1124222EF32D12
:1025D000F0623F2E08C08C3621F4832D8068382E9F
:1025E00002C0883641F4F70193FD859193FF8191F4
:1025F0007F018111B3CF982F9F7D9554933028F49C
:102600000C5F1F4F9FE399830DC0833631F08337F2
:1026100071F0833509F059C021C0F80180818983A8
:102620000E5F1F4F88248394912C530113C02801FF
:10263000F2E04F0E511CF801A080B18036FE03C0BD
:10264000692D70E002C06FEF7FEFC5010E946C142E
:102650004C018201F32DFF773F2E16C0280122E0A6
:10266000420E511CF801A080B18036FE03C0692DD6
:1026700070E002C06FEF7FEFC5010E9461144C0152
:10268000F32DF0683F2E820133FC1BC0822D90E0B9
:1026900088169906B0F4B60180E290E00E947714A3
:1026A0002A94F4CFF50137FC859137FE81915F01C3
:1026B000B60190E00E94771421102A9421E0821A3A
:1026C00091088114910471F7E8C0843611F08936BD
:1026D00041F5F80137FE07C06081718182819381E5
:1026E0000C5F1F4F08C060817181072E000C880BA2
:1026F000990B0E5F1F4FF32DFF763F2E97FF09C0FA
:1027000090958095709561957F4F8F4F9F4FF068A2
:102710003F2E2AE030E0A3010E94B314882E8618D1
:1027200045C0853731F4232D2F7EB22E2AE030E0CC
:1027300025C0932D997FB92E8F36C1F018F48835B6
:1027400079F0B5C0803719F0883721F0B0C0E92F93
:10275000E061BE2EB4FE0DC0FB2DF460BF2E09C09B
:1027600034FE0AC0292F2660B22E06C028E030E0D1
:1027700005C020E130E002C020E132E0F801B7FE00
:1027800007C060817181828193810C5F1F4F06C0F9
:102790006081718180E090E00E5F1F4FA3010E9475
:1027A000B314882E8618FB2DFF773F2E36FE0DC002
:1027B000232D2E7FA22E891458F434FE0BC032FC38
:1027C00009C0832D8E7EA82E05C0B82CA32C03C073
:1027D000B82C01C0B92CA4FE0FC0FE01E80DF11DFC
:1027E0008081803321F49A2D997EA92E09C0A2FE02
:1027F00006C0B394B39404C08A2D867809F0B394CC
:10280000A3FC11C0A0FE06C0B21488F4280C922CC0
:102810009B180EC0B21460F4B60180E290E00E94F2
:102820007714B394F7CFB21418F42B1802C0982C75
:10283000212CA4FE10C0B60180E390E00E94771422
:10284000A2FE17C0A1FC03C088E790E002C088E5A3
:1028500090E0B6010CC08A2D867859F0A1FE02C026
:102860008BE201C080E2A7FC8DE2B60190E00E94FD
:102870007714891438F4B60180E390E00E9477144D
:102880009A94F7CF8A94F301E80DF11D8081B60187
:1028900090E00E9477148110F5CF222009F442CEF7
:1028A000B60180E290E00E9477142A94F6CFF601F8
:1028B0008681978102C08FEF9FEF2B96E2E10C9407
:1028C0002D15FC010590615070400110D8F78095DE
:1028D00090958E0F9F1F0895FC01615070400190EC
:1028E0000110D8F7809590958E0F9F1F08950F9334
:1028F0001F93CF93DF93FB01238121FD03C08FEF53
:102900009FEF2CC022FF16C046815781248135815C
:102910004217530744F4A081B1819D012F5F3F4FBF
:10292000318320838C93268137812F5F3F4F3783FC
:10293000268314C08B01EC01FB010084F185E02D9E
:102940000995892BE1F6D80116968D919C911797E0
:10295000019617969C938E931697CE01DF91CF9197
:102960001F910F910895FA01AA27283051F12031C3
:1029700081F1E8946F936E7F6E5F7F4F8F4F9F4F13
:10298000AF4FB1E03ED0B4E03CD0670F781F891F55
:102990009A1FA11D680F791F8A1F911DA11D6A0F23
:1029A000711D811D911DA11D20D009F468943F91D6
:1029B0002AE0269F11243019305D3193DEF6CF01D5
:1029C0000895462F4770405D4193B3E00FD0C9F79B
:1029D000F6CF462F4F70405D4A3318F0495D31FD08
:1029E0004052419302D0A9F7EACFB4E0A69597955B
:1029F000879577956795BA95C9F700976105710531
:102A000008959B01AC010A2E06945795479537957A
:102A10002795BA95C9F7620F731F841F951FA01DD4
:102A200008952F923F924F925F926F927F928F9272
:102A30009F92AF92BF92CF92DF92EF92FF920F934D
:102A40001F93CF93DF93CDB7DEB7CA1BDB0B0FB657
:102A5000F894DEBF0FBECDBF09942A883988488814
:102A60005F846E847D848C849B84AA84B984C884AA
:102A7000DF80EE80FD800C811B81AA81B981CE0FA1
:102A8000D11D0FB6F894DEBF0FBECDBFED01089586
:042A9000F894FFCFE8
:102A9400FFFF015245004D4900464100534F4C0091
:102AA4004C4100534900706D002F00253032643AC8
:102AB4002530326400444F204A6F7300706D2F44F8
:102AC4004F312E57415600706D2F52452E574156A7
:102AD40000706D2F4D492E57415600706D2F4641A1
:102AE4002E57415600706D2F534F4C2E57415600B0
:102AF400706D2F4C412E57415600706D2F53492E47
:102B040057415600444F2053757300706D2F444F46
:102B1400322E57415600747279696E672E2E2E003C
:102B24006D6F756E746564210020202020202020A4
:0A2B34002020202020202020200077
:00000001FF
